:100000000C9463000C948B000C948B000C949F0355
:100010000C949F030C949F030C948B000C948B0006
:100020000C948B000C948B000C948B000C948B0024
:100030000C948B000C948B000C948B000C948B0014
:100040000C9455030C948B000C9423030C94FD0228
:100050000C948B000C948B000C948B000C948B00F4
:100060000C948B000C948B0000000008000201002F
:100070000003040700000000000000000000000072
:1000800023002600290000000000240027002A0089
:1000900000000000250028002B00040404040404D0
:1000A0000404020202020202030303030303010227
:1000B00004081020408001020408102001020408F6
:1000C00010206304790811241FBECFEFD8E0DEBFF3
:1000D000CDBF22E0ACE2B1E001C01D92AD36B20767
:1000E000E1F711E0A0E0B1E0E4EDF1E102C005903C
:1000F0000D92AC32B107D9F710E0C2E6D0E004C0EF
:100100002197FE010E94C308C136D107C9F70E949A
:1001100091050C94DD080C940000AF92BF92CF9231
:10012000DF92EF92FF920F931F93CF93DF936C01B7
:100130007B018B01040F151FEB015E01AE18BF0898
:10014000C017D10759F06991D601ED91FC9101904A
:10015000F081E02DC6010995892B79F7C501DF9162
:10016000CF911F910F91FF90EF90DF90CF90BF90B4
:10017000AF900895FC01538D448D252F30E0842FDE
:1001800090E0821B930B541710F0CF9608950197BF
:100190000895FC01918D828D981761F0A28DAE0FAC
:1001A000BF2FB11D5D968C91928D9F5F9F73928F33
:1001B00090E008958FEF9FEF0895FC01918D828D5F
:1001C000981731F0828DE80FF11D858D90E008952C
:1001D0008FEF9FEF08952FB7F8948091750190915C
:1001E0007601A0917701B09178012FBF80938101B2
:1001F00090938201A0938301B093840189E791E0F9
:100200000E94DD0097FF26C02FB7F89480917501FA
:1002100090917601A0917701B09178012FBF409124
:100220008101509182016091830170918401841B4E
:10023000950BA60BB70B40917D0150917E0160910B
:100240007F017091800184179507A607B707B0F268
:100250008FEF9FEF0895FC01918D228D892F90E003
:10026000805C9F4F821B91098F739927089589E7BE
:1002700091E00E942B0121E0892B09F420E0822FDC
:10028000089580E090E0892B29F00E9437018111C8
:100290000C9400000895FC01A48DA80FB92FB11D86
:1002A000A35ABF4F2C91848D90E001968F739927AC
:1002B000848FA689B7892C93A089B1898C9183708A
:1002C00080648C93938D848D981306C00288F38983
:1002D000E02D80818F7D80830895EF92FF920F93B0
:1002E0001F93CF93DF93EC0181E0888F9B8D8C8DE2
:1002F00098131AC0E889F989808185FF15C09FB7D6
:10030000F894EE89FF896083E889F9898081837098
:10031000806480839FBF81E090E0DF91CF911F9147
:100320000F91FF90EF900895F62E0B8D10E00F5F68
:100330001F4F0F731127E02E8C8D8E110CC00FB63E
:1003400007FCFACFE889F989808185FFF5CFCE01D6
:100350000E944B01F1CFEB8DEC0FFD2FF11DE35A05
:10036000FF4FF0829FB7F8940B8FEA89FB89808159
:100370008062CFCFCF93DF93EC01888D8823B9F0D3
:10038000AA89BB89E889F9898C9185FD03C08081A0
:1003900086FD0DC00FB607FCF7CF8C9185FFF2CF1D
:1003A000808185FFEDCFCE010E944B01E9CFDF9127
:1003B000CF9108953FB7F89480916D0190916E01AF
:1003C000A0916F01B091700126B5A89B05C02F3F89
:1003D00019F00196A11DB11D3FBFBA2FA92F982F6B
:1003E0008827BC01CD01620F711D811D911D42E066
:1003F000660F771F881F991F4A95D1F708958F922E
:100400009F92AF92BF92CF92DF92EF92FF924B01F9
:100410005C010E94DA016B017C010E94DA016C1917
:100420007D098E099F09683E734081059105A8F3F7
:1004300021E0821A9108A108B10888EEC80E83E075
:10044000D81EE11CF11C81149104A104B10429F708
:10045000FF90EF90DF90CF90BF90AF909F908F90E4
:10046000089520917301309174012817390771F4B0
:100470009091710180917201981741F0E0917101A2
:10048000F0E0E45DFE4F808190E008958FEF9FEFF4
:1004900008950895EF92FF920F931F93CF93DF93E8
:1004A000DC015C96ED90FC905D97E114F10479F429
:1004B00081E090E013969C938E93129790E080E0F9
:1004C000DF91CF911F910F91FF90EF90089551967A
:1004D000ED91FC91529750968C915097982F909552
:1004E0000FB75E962C915E97122F127021FD6095CA
:1004F000F8942081112319F1282B2083E7012197FB
:10050000F1F728E0462F50E0308160FF1AC0382B09
:100510003083E7012197F1F7BA017595679521506E
:1005200089F7112381F08081892380830FBF5C9636
:100530008D919C910197F1F781E090E0C1CF292343
:10054000DCCF3923E5CF9081892BEFCF2091730148
:10055000309174012817390771F48091720120914C
:10056000710190E0805C9F4F821B910960E470E014
:100570000E94AF08089590E080E0089520917301F3
:100580003091740128173907B9F490917101809165
:100590007201981789F0E0917101F0E0E45DFE4F7F
:1005A00080812091710130E02F5F3F4F2F733327FF
:1005B0002093710190E008958FEF9FEF089590E0F0
:1005C00080E00895FC0101900020E9F73197AF0128
:1005D000481B590BBC0189E791E00C948D00CF9327
:1005E000DF930E94E202EC0184E291E00E94E202C9
:1005F0008C0F9D1FDF91CF9108951F920F920FB620
:100600000F9211242F933F934F935F936F937F9398
:100610008F939F93AF93BF93EF93FF9389E791E0FD
:100620000E944B01FF91EF91BF91AF919F918F91EC
:100630007F916F915F914F913F912F910F900FBEDE
:100640000F901F9018951F920F920FB60F921124C2
:100650002F938F939F93EF93FF93E0918901F091F4
:100660008A018081E0918F01F091900182FD1BC091
:100670009081809192018F5F8F73209193018217F7
:1006800041F0E0919201F0E0E758FE4F958F8093A2
:100690009201FF91EF919F918F912F910F900FBE3B
:1006A0000F901F9018958081F4CF1F920F920FB674
:1006B0000F9211242F933F938F939F93AF93BF93E8
:1006C0008091750190917601A0917701B0917801A8
:1006D00030916C0123E0230F2D3758F50196A11DB1
:1006E000B11D20936C018093750190937601A093C6
:1006F0007701B093780180916D0190916E01A09186
:100700006F01B09170010196A11DB11D80936D0123
:1007100090936E01A0936F01B0937001BF91AF9160
:100720009F918F913F912F910F900FBE0F901F902F
:10073000189526E8230F0296A11DB11DD2CF1F9256
:100740000F920FB60F9211242F933F934F935F9305
:100750006F937F938F939F93AF93BF93EF93FF9389
:10076000E0917301F0917401309749F0A685B78547
:100770008585968D91FF14C09C918923A1F4FF91EA
:10078000EF91BF91AF919F918F917F916F915F9109
:100790004F913F912F910F900FBE0F901F90189582
:1007A0009C91892361F7A389B4899C91858980955F
:1007B00089238C93868997890197F1F7608D718DD4
:1007C000A685B785558538E020E0CB010197F1F784
:1007D000822F90E095958795282F4C91452309F01D
:1007E0002068315091F7868D81FD209580917201AE
:1007F00090E001968F73992730917101381799F025
:10080000A0917201B0E0A45DBE4F2C938093720161
:10081000828D938D0197F1F7A389B4898C91958985
:10082000892B8C93ACCF868D8160868FF1CF90E041
:10083000FC01E859FF4F2491FC01E255FF4F349130
:10084000FC01E656FF4FE491EE23C9F0222339F074
:10085000233001F1A8F4213019F1223029F1F0E020
:10086000EE0FFF1FE057FF4FA591B4918FB7F8949B
:10087000EC91611126C030953E233C938FBF0895C3
:100880002730A9F02830C9F0243049F78091800042
:100890008F7D03C0809180008F7780938000DFCFB1
:1008A00084B58F7784BDDBCF84B58F7DFBCF8091FE
:1008B000B0008F778093B000D2CF8091B0008F7D51
:1008C000F9CF3E2BDACF0F931F93CF93DF93109284
:1008D0007C0110927B0188EE93E0A0E0B0E0809371
:1008E0007D0190937E01A0937F01B093800124E06D
:1008F00031E030937A012093790125EC30E0309398
:1009000086012093850124EC30E030938801209308
:10091000870120EC30E030938A012093890121EC9B
:1009200030E030938C0120938B0122EC30E0309347
:100930008E0120938D0126EC30E0309390012093BE
:100940008F011092920110929301109294011092D3
:10095000950110925102109250028093520290938E
:100960005302A0935402B093550286E191E0909314
:100970004F0280934E021092650210926402109210
:100980006702109266021092690210926802109239
:100990006B0210926A0260916C026E7F6D7F6093B1
:1009A0006C026695617081E0682783E00E941704FD
:1009B00041EB50E0FA0164918DE990E0FC01249153
:1009C000222399F030E0220F331FF901EA57FF4F3D
:1009D000A591B491F901E057FF4F259134912FB7BC
:1009E000F8943C91632B6C932FBFFA014491409390
:1009F0005E02FC018491E82FF0E0EE0FFF1FE0574C
:100A0000FF4F859194919093600280935F0200EB79
:100A100010E0F8012491CCE9D0E0FE018491882314
:100A2000C9F090E0880F991FFC01EA57FF4FA5918C
:100A3000B491FC01E057FF4F459154913FB7F894B2
:100A40009C91822F809598239C93FA019081892311
:100A500080833FBF80916C0281FD04C061E082E031
:100A60000E9417048EE492E022E020935A02F801DB
:100A7000049100935B02FE01C491EC2FF0E0EE0FB5
:100A8000FF1FE458FF4F2591349130935D0220936E
:100A90005C0210921D0210921C0210921F02109212
:100AA0001E0220E430E030932102209320021092B5
:100AB0002302109222024FEF5FEFBA01409324020B
:100AC00050932502609326027093270230932902E7
:100AD0002093280220E031EE30932B0220932A024B
:100AE00010922C0210922D0210922E0210922F02C0
:100AF000409330025093310260933202709333027C
:100B000010924D0210924C0290934B0280934A0235
:100B10009093490280934802DF91CF911F910F91EA
:100B20000895CF93DF93CDB7DEB7CE54D1090FB67A
:100B3000F894DEBF0FBECDBF789484B5826084BDCB
:100B400084B5816084BD85B5826085BD85B58160D1
:100B500085BD80916E00816080936E00109281004F
:100B6000809181008260809381008091810081600A
:100B700080938100809180008160809380008091CB
:100B8000B10084608093B1008091B0008160809357
:100B9000B00080917A00846080937A0080917A001E
:100BA000826080937A0080917A00816080937A00DD
:100BB00080917A00806880937A001092C100E09161
:100BC0008901F0918A0102E00083E0918501F091B2
:100BD00086011082E0918701F09188018FEC80837B
:100BE00010929101E0918D01F0918E0116E0108339
:100BF000E0918B01F0918C01808180618083E09194
:100C00008B01F0918C01808188608083E0918B0161
:100C1000F0918C01808180688083E0918B01F0915C
:100C20008C0180818F7D808364E670E080E090E0BD
:100C30000E94FF0168EE73E080E090E00E94FF01F7
:100C4000E0914C02F0914D02309731F1A089B189C9
:100C50000C93A089B1891C92A485B5851C92A685A8
:100C6000B78580E18C93108EA489B5891C93A289E5
:100C7000B3898C9180618C93A289B3898C918860AF
:100C80008C93A289B3898C9180688C930288F389B4
:100C9000E02D80818F7D8083E0914A02F0914B02AC
:100CA000309709F477C0138E128E118E108E178A2A
:100CB000168A82E490E0958F848F8485863108F0CF
:100CC0003DC02FE030E0378B268B20E430E0318FC1
:100CD000208F27E230E0338F228F90916800883098
:100CE00008F452C121E08E3008F420E081E001C018
:100CF000880F2A95EAF7892B8093680094852DE662
:100D000030E0983050F02BE630E09E3030F02CE6AA
:100D100030E0963110F030E020E0348B238B292F27
:100D200030E0983008F032C181E001C0880F9A9518
:100D3000EAF7858B848D958D0197F1F7828D938DE0
:100D4000892B41F14091730150917401E417F5072B
:100D500009F14115510569F0DA0153962D913C9145
:100D6000D9019C91DA0155968C9180958923D901FE
:100D70008C93868D8E7F868F1092720110927101F6
:100D8000F0937401E0937301A389B4898C919589E0
:100D9000892B8C937724739440E0A42E40E0B42EEA
:100DA0003CE0632E89E791E00E942B01892BD1F36F
:100DB0000E94EB00FC0197FDFDC08D32910521F0F2
:100DC000C0970A9708F0EFC0C12CD12C760110E033
:100DD000E130F105D9F0ED32F10509F4E9C0CF01B8
:100DE000C0970A9798F4AAE0B0E0A70196010E9484
:100DF00095086F01FF0FEE08FF08C60ED71EE81E0C
:100E0000F91EB0E3CB1AD108E108F10889E791E0B7
:100E10000E94C9000E94EB00FC01C0970A97C0F233
:100E2000E130F105A9F2112341F0F094E094D0945F
:100E3000C094C11CD11CE11CF11CCC2009F4B2CF20
:100E40002F961DAE1EAE1FAE2F972B966FAE2B9713
:100E50002C961FAE2C972D96CFAE2D972F967FAE4A
:100E60002F9785E0FE01E65BFF4FDE011A960190A9
:100E70000D928A95E1F78091480290914902DC0138
:100E8000ED91FC910190F081E02D6FEE099580913C
:100E9000480290914902DC01ED91FC910190F081B2
:100EA000E02D61E009958091480290914902DC01B2
:100EB000ED91FC910190F081E02D6FEF099580910B
:100EC000480290914902DC01ED91FC910190F08182
:100ED000E02D6FEF09958091480290914902DC0165
:100EE000ED91FC910190F081E02D6FEF09958091DB
:100EF000480290914902DC01ED91FC910190F08152
:100F0000E02D6FEF09958091480290914902DC0134
:100F1000ED91FC910190F081E02D61E009958091C7
:100F2000480290914902DC01ED91FC910190F08121
:100F3000E02D60E009958091480290914902DC0122
:100F4000ED91FC910190F081E02D67E009957E0123
:100F5000BAE0EB0EF11C26E0D22E08E010E0809102
:100F6000480290914902DC01ED91FC910190F081E1
:100F7000E02DDA94DD2011F1D701CD907D016C2DAB
:100F800009950C0D111DEBCF84E0B5CE9E3040F4D9
:100F90002850310981E001C0880F2A95EAF7C9CEAF
:100FA0002E503109F7CF89E791E00E94C90000CFA8
:100FB00011E02CCFC12CD12C76013FCF612F0995A8
:100FC0008091480290914902DC01ED91FC910190E1
:100FD000F081E02D602F099585E0E82EF12C552455
:100FE0005394CC24C3949FEED92E912C812C10E0E5
:100FF00000E08091480290914902DC01ED91FC9162
:101000000084F185E02D0995892B89F461E070E079
:1010100080E090E00E94FF01BFEF8B1A9B0A88EEF0
:10102000881683E0980628F389E291E046C0809113
:10103000480290914902DC01ED91FC910284F38514
:10104000E02D09950930110520F5F801E65DF74F0F
:101050000C94C30837083D083408340834083408B1
:10106000330844084708582E0F5F1F4FC2CF8F3EEA
:1010700009F0BFCFD82EC12CF7CFC82AB1E0CB16CC
:10108000BFEEDB0689F3D0CFF82EE12CEDCFE82AB6
:10109000EBCFE1E0F0E0EC0FFD1FE00FF11F8083EC
:1010A000C8010897E816F906F9F687E05812BCCF90
:1010B0008A85811110C087E291E00E94EF02A1149D
:1010C000B10409F46FCE0E943701882309F46ACE77
:1010D0000E94000065CE813009F4A6CF8B3009F460
:1010E000A3CF883109F4A0CF89E291E00E94E20207
:1010F000E6CF86E191E090934F0280934E0280917B
:101100007301909174018E54924071F4E0916102E8
:10111000F09162029081809163028095892380839F
:10112000109274011092730108950E94A008A59F67
:10113000900DB49F900DA49F800D911D11240895D2
:10114000A29FB001B39FC001A39F700D811D112408
:10115000911DB29F700D811D1124911D089597FB63
:10116000072E16F4009407D077FD09D00E94C90815
:1011700007FC05D03EF4909581959F4F089570959A
:1011800061957F4F0895EE0FFF1F0590F491E02DBC
:101190000994AA1BBB1B51E107C0AA1FBB1FA617BE
:1011A000B70710F0A61BB70B881F991F5A95A9F710
:1011B00080959095BC01CD01089510E0C2E6D0E085
:1011C00004C0FE010E94C3082196C336D107C9F7A7
:0411D000F894FFCFC1
:1011D400000000006D018D00BA00BA012B01C900A6
:1011E400DD00000000004A028D00DF024902A60271
:0C11F400BE0231020D0A00310030000084
:00000001FF
