:100000000C9463000C948B000C948B000C94B6053C
:100010000C94B6050C94B6050C948B000C948B00D4
:100020000C948B000C948B000C948B000C948B0024
:100030000C948B000C948B000C948B000C948B0014
:100040000C946C050C948B000C943A050C941405DC
:100050000C948B000C948B000C948B000C948B00F4
:100060000C948B000C948B000000000024002700EF
:100070002A0000000008000201000003040700003D
:1000800000000000000000000000230026002900FE
:1000900000000000250028002B00040404040404D0
:1000A0000404020202020202030303030303010227
:1000B00004081020408001020408102001020408F6
:1000C00010202E06840A11241FBECFEFD8E0DEBF19
:1000D000CDBF22E0ACE2B1E001C01D92AE36B20766
:1000E000E1F711E0A0E0B1E0E8EFF5E102C0059032
:1000F0000D92AC32B107D9F710E0C2E6D0E004C0EF
:100100002197FE010E94CE0AC136D107C9F70E948D
:100110001E070C94EF0A0C940000DF92EF92FF92FE
:100120000F931F93CF93DF93EC018091490290913D
:100130004A026981DC01ED91FC910190F081E02D92
:1001400009958091490290914A02DC01ED91FC9160
:100150000190F081E02D688109958091490290918C
:100160004A02DC01ED91FC910190F081E02D6A8161
:1001700009958091490290914A02DC01ED91FC9130
:100180000190F081E02D6B81099580914902909159
:100190004A02DC01ED91FC910190F081E02D6C812F
:1001A00009958091490290914A02DC01ED91FC9100
:1001B0000190F081E02D6D81099580914902909127
:1001C0004A02DC01ED91FC910190F081E02D6E81FD
:1001D00009950F8118850E5F1F4F809149029091FC
:1001E0004A02E12EFF24DC01ED91FC910190F081A7
:1001F000E02D6E2D09958091490290914A02DC0113
:10020000ED91FC910190F081E02D602F09950E0D8C
:100210001F2D111D8E81080F111DD12C80914902B7
:1002200090914A02DC01ED91FC910190F081E02D6A
:10023000ED2CF12C2F813885E216F30660F4EC0EDC
:10024000FD1ED70119966C910995F7018185080F5C
:10025000111DD394E3CF612F0995809149029091AC
:100260004A02DC01ED91FC910190F081E02D602FBC
:10027000DF91CF911F910F91FF90EF90DF90099444
:10028000AF92BF92CF92DF92EF92FF920F931F93A4
:10029000CF93DF936C017B018B01040F151FEB01E2
:1002A0005E01AE18BF08C017D10759F06991D60199
:1002B000ED91FC910190F081E02DC6010995892B0B
:1002C00079F7C501DF91CF911F910F91FF90EF90CA
:1002D000DF90CF90BF90AF900895FC01538D448D77
:1002E000252F30E0842F90E0821B930B541710F0E1
:1002F000CF96089501970895FC01918D828D9817EE
:1003000061F0A28DAE0FBF2FB11D5D968C91928DC5
:100310009F5F9F73928F90E008958FEF9FEF0895F6
:10032000FC01918D828D981731F0828DE80FF11DBF
:10033000858D90E008958FEF9FEF08952FB7F89483
:100340008091760190917701A0917801B091790127
:100350002FBF8093820190938301A0938401B09377
:1003600085018AE791E00E94900197FF26C02FB790
:10037000F8948091760190917701A0917801B091E5
:1003800079012FBF409182015091830160918401D6
:1003900070918501841B950BA60BB70B40917E01D4
:1003A00050917F01609180017091810184179507C0
:1003B000A607B707B0F28FEF9FEF0895FC01918D6C
:1003C000228D892F90E0805C9F4F821B91098F7353
:1003D000992708958AE791E00E94DE0121E0892BA8
:1003E00009F420E0822F089580E090E0892B29F025
:1003F0000E94EA0181110C9400000895FC01A48D73
:10040000A80FB92FB11DA35ABF4F2C91848D90E036
:1004100001968F739927848FA689B7892C93A08919
:10042000B1898C91837080648C93938D848D9813A3
:1004300006C00288F389E02D80818F7D8083089536
:10044000EF92FF920F931F93CF93DF93EC0181E024
:10045000888F9B8D8C8D98131AC0E889F9898081CB
:1004600085FF15C09FB7F894EE89FF896083E889FE
:10047000F98980818370806480839FBF81E090E0F0
:10048000DF91CF911F910F91FF90EF900895F62E7D
:100490000B8D10E00F5F1F4F0F731127E02E8C8D17
:1004A0008E110CC00FB607FCFACFE889F98980815C
:1004B00085FFF5CFCE010E94FE01F1CFEB8DEC0F51
:1004C000FD2FF11DE35AFF4FF0829FB7F8940B8F79
:1004D000EA89FB8980818062CFCFCF93DF93EC01E3
:1004E000888D8823B9F0AA89BB89E889F9898C911C
:1004F00085FD03C0808186FD0DC00FB607FCF7CFD8
:100500008C9185FFF2CF808185FFEDCFCE010E94D7
:10051000FE01E9CFDF91CF91089590E0FC01EE5804
:10052000FF4F2491FC01E255FF4F3491FC01E65648
:10053000FF4FE491EE23C9F0222339F0233001F17B
:10054000A8F4213019F1223029F1F0E0EE0FFF1F5D
:10055000E057FF4FA591B4918FB7F894EC916111DA
:1005600026C030953E233C938FBF08952730A9F0D5
:100570002830C9F0243049F7809180008F7D03C076
:10058000809180008F7780938000DFCF84B58F7754
:1005900084BDDBCF84B58F7DFBCF8091B0008F779A
:1005A0008093B000D2CF8091B0008F7DF9CF3E2BE9
:1005B000DACFCF93DF9390E0FC01E255FF4F249117
:1005C00086569F4FFC0184918823D1F090E0880FDC
:1005D000991FFC01E859FF4FA591B491FC01E05728
:1005E000FF4FC591D49161110EC09FB7F8948C91C3
:1005F000E22FE0958E238C932881E223E8839FBF2E
:10060000DF91CF9108958FB7F894EC91E22BEC93A2
:100610008FBFF6CF3FB7F89480916D0190916E0136
:10062000A0916F01B091700126B5A89B05C02F3F26
:1006300019F00196A11DB11D3FBFBA2FA92F982F08
:100640008827BC01CD01620F711D811D911D42E003
:10065000660F771F881F991F4A95D1F708958F92CB
:100660009F92AF92BF92CF92DF92EF92FF924B0197
:100670005C010E940A036B017C010E940A036C1951
:100680007D098E099F09683E734081059105A8F395
:1006900021E0821A9108A108B10888EEC80E83E013
:1006A000D81EE11CF11C81149104A104B10429F7A6
:1006B000FF90EF90DF90CF90BF90AF909F908F9082
:1006C0000895EF92FF920F931F93CF93DF93EC0166
:1006D000F12CE12C10E000E08091490290914A0257
:1006E000DC01ED91FC910084F185E02D0995892BC9
:1006F000B1F461E070E080E090E00E942F03BFEF72
:10070000EB1AFB0A88EEE81683E0F80628F38FEF71
:10071000DF91CF911F910F91FF90EF9008958091FD
:10072000490290914A02DC01ED91FC910284F3852B
:10073000E02D09950930110580F5F801EE55FC4FC3
:100740000C94CE0AAB03B303BD03BD03BD03BD03CD
:10075000C203C403C7038F3E09F0BECF188289834A
:100760000F5F1F4FB9CF28813981282B3983288308
:1007700021303F4EA9F38EEFCBCFFE01E00FF11FEA
:100780008083EECF8E83ECCF1F828887E9CF2F81C5
:100790003885282B38872F83E3CFFE01E00FF11F28
:1007A00080832F813885C801089782179307C1F687
:1007B00080E0AECF20917301309174012817390782
:1007C00071F49091710180917201981741F0E0915C
:1007D0007101F0E0E45DFE4F808190E008958FEFBD
:1007E0009FEF08950895EF92FF920F931F93CF9379
:1007F000DF93DC015C96ED90FC905D97E114F104D1
:1008000079F481E090E013969C938E93129790E098
:1008100080E0DF91CF911F910F91FF90EF900895AD
:100820005196ED91FC91529750968C915097982F3C
:1008300090950FB75E962C915E97122F127021FD46
:100840006095F8942081112319F1282B2083E7016A
:100850002197F1F728E0462F50E0308160FF1AC061
:10086000382B3083E7012197F1F7BA017595679529
:10087000215089F7112381F08081892380830FBF64
:100880005C968D919C910197F1F781E090E0C1CF4A
:100890002923DCCF3923E5CF9081892BEFCF20911D
:1008A0007301309174012817390771F48091720136
:1008B0002091710190E0805C9F4F821B910960E460
:1008C00070E00E94BA0A089590E080E008952091B7
:1008D00073013091740128173907B9F490917101AF
:1008E00080917201981789F0E0917101F0E0E45D68
:1008F000FE4F80812091710130E02F5F3F4F2F73B9
:1009000033272093710190E008958FEF9FEF0895B2
:1009100090E080E00895CF93DF93FC0101900020E8
:10092000E9F73197AF01481B590BBC018AE791E009
:100930000E944001EC0142E050E064E271E08AE78D
:1009400091E00E9440018C0F9D1FDF91CF9108958F
:10095000CF93DF93CDB7DEB7C954D1090FB6F89462
:10096000DEBF0FBECDBF21E03FEE3A83298391E089
:100970009F8322E030E0398728879FEF9B839C8309
:100980009D839E8392E09A878B87CE0101960E9479
:100990008D00CE0101960E94610381110EC08F81EE
:1009A000873059F48A85C75BDF4F0FB6F894DEBFF6
:1009B0000FBECDBFDF91CF91089581E0F4CFCF93EB
:1009C000DF93CDB7DEB7C954D1090FB6F894DEBFB7
:1009D0000FBECDBF81E09FEE9A83898391E09F8314
:1009E00021E030E0398728878FEF8B838C838D83DC
:1009F0008E839A87CE0101960E948D00CE010196CA
:100A00000E94610381110EC08F81873059F48A855D
:100A1000C75BDF4F0FB6F894DEBF0FBECDBFDF91CF
:100A2000CF91089581E0F4CF1F920F920FB60F92ED
:100A300011242F933F934F935F936F937F938F93E3
:100A40009F93AF93BF93EF93FF938AE791E00E9448
:100A5000FE01FF91EF91BF91AF919F918F917F9197
:100A60006F915F914F913F912F910F900FBE0F901B
:100A70001F9018951F920F920FB60F9211242F936B
:100A80008F939F93EF93FF93E0918A01F0918B01F5
:100A90008081E0919001F091910182FD1BC09081D5
:100AA000809193018F5F8F7320919401821741F0A1
:100AB000E0919301F0E0E658FE4F958F809393010B
:100AC000FF91EF919F918F912F910F900FBE0F90FB
:100AD0001F9018958081F4CF1F920F920FB60F923E
:100AE00011242F933F938F939F93AF93BF93809144
:100AF000760190917701A0917801B09179013091C0
:100B00006C0123E0230F2D3758F50196A11DB11D6F
:100B100020936C018093760190937701A0937801E4
:100B2000B093790180916D0190916E01A0916F0158
:100B3000B09170010196A11DB11D80936D0190933C
:100B40006E01A0936F01B0937001BF91AF919F911F
:100B50008F913F912F910F900FBE0F901F9018957E
:100B600026E8230F0296A11DB11DD2CF1F920F922E
:100B70000FB60F9211242F933F934F935F936F9370
:100B80007F938F939F93AF93BF93EF93FF93E091E6
:100B90007301F0917401309749F0A685B78585857A
:100BA000968D91FF14C09C918923A1F4FF91EF9140
:100BB000BF91AF919F918F917F916F915F914F9175
:100BC0003F912F910F900FBE0F901F9018959C9101
:100BD000892361F7A389B4899C91858980958923AC
:100BE0008C93868997890197F1F7608D718DA68521
:100BF000B785558538E020E0CB010197F1F7822FCA
:100C000090E095958795282F4C91452309F0206811
:100C1000315091F7868D81FD20958091720190E091
:100C200001968F73992730917101381799F0A0912F
:100C30007201B0E0A45DBE4F2C9380937201828D4F
:100C4000938D0197F1F7A389B4898C919589892BAC
:100C50008C93ACCF868D8160868FF1CF10927D0111
:100C600010927C0188EE93E0A0E0B0E080937E01DA
:100C700090937F01A0938001B093810124E031E043
:100C800030937B0120937A0125EC30E0309387018B
:100C90002093860124EC30E0309389012093880171
:100CA00020EC30E030938B0120938A0121EC30E07E
:100CB00030938D0120938C0122EC30E030938F0132
:100CC00020938E0126EC30E0309391012093900127
:100CD0001092930110929401109295011092960136
:100CE0001092520210925102809353029093540238
:100CF000A0935502B093560286E191E09093500282
:100D000080934F0210926602109265021092680260
:100D10001092670210926A021092690210926C029D
:100D200010926B0260916D026E7F6D7F60936D0219
:100D30006695617081E0682783E00E948D0261E022
:100D400083E00E94D902E1EBF0E0E491E0935F02DE
:100D5000EDE9F0E0E491F0E0EE0FFF1FE057FF4F08
:100D600085919491909361028093600260E082E0AB
:100D70000E94D90280916D0281FD04C061E082E091
:100D80000E948D028FE492E022E020935B02E0EB70
:100D9000F0E0E491E0935C02ECE9F0E0E491F0E053
:100DA000EE0FFF1FEA57FF4F2591349130935E02FB
:100DB00020935D0210921E0210921D0210922002DA
:100DC00010921F0220E430E030932202209321028F
:100DD00010922402109223024FEF5FEFBA0140936A
:100DE00025025093260260932702709328023093C5
:100DF0002A022093290220E031EE30932C02209326
:100E00002B0210922D0210922E0210922F0210929D
:100E10003002409331025093320260933302709358
:100E2000340210924E0210924D0290934C02809325
:100E30004B0290934A02809349020895CF93DF9327
:100E4000CDB7DEB7C954D1090FB6F894DEBF0FBED7
:100E5000CDBF789484B5826084BD84B5816084BD43
:100E600085B5826085BD85B5816085BD80916E0048
:100E7000816080936E001092810080918100826079
:100E800080938100809181008160809381008091B6
:100E900080008160809380008091B10084608093A5
:100EA000B1008091B00081608093B00080917A00A1
:100EB000846080937A0080917A00826080937A00C7
:100EC00080917A00816080937A0080917A008068B6
:100ED00080937A001092C10061E086E00E94D902FE
:100EE000E0918A01F0918B0102E00083E09186019C
:100EF000F09187011082E0918801F09189018FECD7
:100F0000808310929201E0918E01F0918F0116E0A2
:100F10001083E0918C01F0918D018081806180834C
:100F2000E0918C01F0918D01808188608083E09157
:100F30008C01F0918D01808180688083E0918C012B
:100F4000F0918D0180818F7D808364E670E080E088
:100F500090E00E942F0368EE73E080E090E00E9432
:100F60002F03E0914D02F0914E02309731F1A089AC
:100F7000B1890C93A089B1891C92A485B5851C9276
:100F8000A685B78580E18C93108EA489B5891C93C2
:100F9000A289B3898C9180618C93A289B3898C9149
:100FA00088608C93A289B3898C9180688C93028825
:100FB000F389E02D80818F7D8083E0914B02F09159
:100FC0004C02309709F477C0138E128E118E108E5A
:100FD000178A168A82E490E0958F848F8485863103
:100FE00008F03DC02FE030E0378B268B20E430E066
:100FF000318F208F27E230E0338F228F909168006D
:10100000883008F410C121E08E3008F420E081E03F
:1010100001C0880F2A95EAF7892B80936800948590
:101020002DE630E0983050F02BE630E09E3030F086
:101030002CE630E0963110F030E020E0348B238B4A
:10104000292F30E0983008F0F0C081E001C0880F0F
:101050009A95EAF7858B848D958D0197F1F7828DAE
:10106000938D892B41F14091730150917401E417E4
:10107000F50709F14115510569F0DA0153962D91F3
:101080003C91D9019C91DA0155968C9180958923E8
:10109000D9018C93868D8E7F868F1092720110926B
:1010A0007101F0937401E0937301A389B4898C9169
:1010B0009589892B8C9380912D0290912E022091FD
:1010C0002F0230913002EE24E3944FEEF42EFA8298
:1010D000E98201E00F8345E050E0598748871FEF20
:1010E0001B831C831D831E8343E14A873B872C8718
:1010F0009D878E87CE0101960E948D00CE010196BC
:101100000E94610381119EC08F81873009F09AC0CF
:101110008A85811197C0FA82E9820F8381E090E08D
:10112000998788871B831C831D831E838FE08A8792
:10113000CE0101960E948D00CE0101960E946103AE
:10114000882309F486C08824839490E0E92E90E0F7
:10115000F92E01E01FEECC24C394D12C34E0A32E51
:10116000B12C99249A9485E0282E8AE791E00E9478
:10117000DE01892BD1F30E949E01FC0197FDDCC0AA
:101180008D32910521F0C0970A9708F0CDC0412C0F
:10119000512C3201312CE130F105D9F0ED32F1055D
:1011A00009F4C7C0CF01C0970A9798F4AAE0B0E04D
:1011B000A30192010E94A00A2F01FF0F6608770881
:1011C000460E571E681E791EB0E34B1A510861087F
:1011D00071088AE791E00E947C010E949E01FC0157
:1011E000C0970A97C0F2E130F105A9F2332041F02F
:1011F0007094609450944094411C511C611C711C6B
:10120000442009F4B2CF409275010E94DF0481307E
:1012100029F008F495C0823009F4CAC089E291E04F
:101220000E948B04F2CF84E0F7CE9E3040F4285029
:10123000310981E001C0880F2A95EAF70BCF2E50C3
:101240003109F7CF61E070E080E090E00E942F0369
:10125000F9CF8F81873009F076CF8B859C859827D1
:101260008927982790931E0280931D028D859E8565
:101270009827892798279093200280931F028F85B3
:101280009889982789279827909322028093210292
:1012900089899A899827892798279093240280938F
:1012A00023026B897C898D899E890E94D40A609370
:1012B00025027093260280932702909328028F893B
:1012C000988D98278927982790932A02809329023E
:1012D0000097C9F480E290E090932A02809329025B
:1012E000898D9A8D98278927982740E855E2849F11
:1012F0009001859F300D949F300D112430932C0266
:1013000020932B0220CF8130910519F480E490E0E6
:10131000E3CF8230910519F480E890E0DDCF0397A8
:10132000F9F680E091E0D8CF8AE791E00E947C0155
:1013300022CF332433944DCF412C512C320160CF36
:1013400061E086E00E948D026CE271E080E090E056
:101350000E942F0360E086E00E948D0264E670E048
:1013600080E090E00E942F0387E291E00E948B04CE
:1013700081E00E94A80481116CC087E291E00E9484
:101380008B0460ED77E080E090E00E942F030E94E4
:10139000DF048230E1F70E94DF04813021F0B8F0F1
:1013A000823009F466C089E291E00E948B04F3CF99
:1013B00061E086E00E948D0268EC70E080E090E0E1
:1013C0000E942F0360E086E00E948D021ECF61E044
:1013D00086E00E948D026CE271E080E090E00E9465
:1013E0002F0360E086E00E948D0264E670E080E0FA
:1013F00090E00E942F0387E291E00E948B0482E03C
:101400000E94A804811125C087E291E00E948B040C
:101410001A8309838F82D986C8869B829C829D828B
:101420009E822A86CE0101960E948D00CE010196F1
:101430000E946103811104C08F817A84873011F08A
:1014400077247394872D90E0009761F181309105A6
:10145000F9F489E291E00E948B04E114F10409F4AB
:1014600084CE0E94EA01882309F47BCE0E9400000A
:1014700078CE61E086E00E948D0268EC70E080E04A
:1014800090E00E942F0360E086E00E948D0283CFEF
:101490000A97F9F289E291E00E948B04772009F41F
:1014A000B4CEDBCF809175011A8309838F82B98610
:1014B000A8869B829C829D829E8296E09A878B86DC
:1014C0001C868D87CE0101960E948D00CE0101966B
:1014D0000E946103811104C08F817A84873011F0EA
:1014E00077247394872D90E0009719F487E291E0B8
:1014F000B2CF8130910509F4ACCF8B30910509F45E
:10150000A8CF489739F6A5CF86E191E09093500295
:1015100080934F0280917301909174018F54924097
:1015200071F4E0916202F091630290818091640213
:10153000809589238083109274011092730108951D
:101540000E94AB0AA59F900DB49F900DA49F800DA3
:10155000911D11240895A29FB001B39FC001A39FC4
:10156000700D811D1124911DB29F700D811D1124DC
:10157000911D089597FB072E16F4009407D077FD70
:1015800009D00E94DB0A07FC05D03EF490958195B6
:101590009F4F0895709561957F4F0895EE0FFF1F3F
:1015A0000590F491E02D09946927962769277827FB
:1015B000872778270895AA1BBB1B51E107C0AA1FE4
:1015C000BB1FA617B70710F0A61BB70B881F991FE4
:1015D0005A95A9F780959095BC01CD01089510E02A
:1015E000C2E6D0E004C0FE010E94CE0A2196C336B6
:0815F000D107C9F7F894FFCF01
:1015F80000000000200240016D016D02DE017C0147
:10160800900100000000F30340018804F2034F0436
:0C1618006704DA030D0A00310030000006
:00000001FF
