:100000000C9463000C948B000C948B000C9478057A
:100010000C9478050C9478050C948B000C948B0050
:100020000C948B000C948B000C948B000C948B0024
:100030000C948B000C948B000C948B000C948B0014
:100040000C942E050C948B000C94FC040C94D60498
:100050000C948B000C948B000C948B000C948B00F4
:100060000C948B000C948B000000000024002700EF
:100070002A0000000008000201000003040700003D
:1000800000000000000000000000230026002900FE
:1000900000000000250028002B00040404040404D0
:1000A0000404020202020202030303030303010227
:1000B00004081020408001020408102001020408F6
:1000C0001020F005180911241FBECFEFD8E0DEBFC5
:1000D000CDBF11E0A0E0B1E0E2E2F3E102C00590A3
:1000E0000D92AE32B107D9F722E0AEE2B1E001C025
:1000F0001D92AF36B207E1F710E0C2E6D0E004C0CF
:100100002197FE010E946A09C136D107C9F70E94F2
:10011000E0060C9484090C940000DF92EF92FF92A9
:100120000F931F93CF93DF93EC0180914A0290913C
:100130004B026981DC01ED91FC910190F081E02D91
:10014000099580914A0290914B02DC01ED91FC915E
:100150000190F081E02D6881099580914A0290918B
:100160004B02DC01ED91FC910190F081E02D6A8160
:10017000099580914A0290914B02DC01ED91FC912E
:100180000190F081E02D6B81099580914A02909158
:100190004B02DC01ED91FC910190F081E02D6C812E
:1001A000099580914A0290914B02DC01ED91FC91FE
:1001B0000190F081E02D6D81099580914A02909126
:1001C0004B02DC01ED91FC910190F081E02D6E81FC
:1001D00009950F8118850E5F1F4F80914A029091FB
:1001E0004B02E12EFF24DC01ED91FC910190F081A6
:1001F000E02D6E2D099580914A0290914B02DC0111
:10020000ED91FC910190F081E02D602F09950E0D8C
:100210001F2D111D8E81080F111DD12C80914A02B6
:1002200090914B02DC01ED91FC910190F081E02D69
:10023000ED2CF12C2F813885E216F30660F4EC0EDC
:10024000FD1ED70119966C910995F7018185080F5C
:10025000111DD394E3CF612F099580914A029091AB
:100260004B02DC01ED91FC910190F081E02D602FBB
:10027000DF91CF911F910F91FF90EF90DF90099444
:10028000AF92BF92CF92DF92EF92FF920F931F93A4
:10029000CF93DF936C017B018B01040F151FEB01E2
:1002A0005E01AE18BF08C017D10759F06991D60199
:1002B000ED91FC910190F081E02DC6010995892B0B
:1002C00079F7C501DF91CF911F910F91FF90EF90CA
:1002D000DF90CF90BF90AF900895FC01538D448D77
:1002E000252F30E0842F90E0821B930B541710F0E1
:1002F000CF96089501970895FC01918D828D9817EE
:1003000061F0A28DAE0FBF2FB11D5D968C91928DC5
:100310009F5F9F73928F90E008958FEF9FEF0895F6
:10032000FC01918D828D981731F0828DE80FF11DBF
:10033000858D90E008958FEF9FEF0895FC01918DDA
:10034000228D892F90E0805C9F4F821B91098F73D3
:10035000992708958BE791E00E949E0121E0892B67
:1003600009F420E0822F089580E090E0892B29F0A5
:100370000E94AA0181110C9400000895FC01A48D33
:10038000A80FB92FB11DA35ABF4F2C91848D90E0B7
:1003900001968F739927848FA689B7892C93A0899A
:1003A000B1898C91837080648C93938D848D981324
:1003B00006C00288F389E02D80818F7D80830895B7
:1003C000EF92FF920F931F93CF93DF93EC0181E0A5
:1003D000888F9B8D8C8D98131AC0E889F98980814C
:1003E00085FF15C09FB7F894EE89FF896083E8897F
:1003F000F98980818370806480839FBF81E090E071
:10040000DF91CF911F910F91FF90EF900895F62EFD
:100410000B8D10E00F5F1F4F0F731127E02E8C8D97
:100420008E110CC00FB607FCFACFE889F9898081DC
:1004300085FFF5CFCE010E94BE01F1CFEB8DEC0F11
:10044000FD2FF11DE35AFF4FF0829FB7F8940B8FF9
:10045000EA89FB8980818062CFCFCF93DF93EC0163
:10046000888D8823B9F0AA89BB89E889F9898C919C
:1004700085FD03C0808186FD0DC00FB607FCF7CF58
:100480008C9185FFF2CF808185FFEDCFCE010E9458
:10049000BE01E9CFDF91CF91089590E0FC01EE58C5
:1004A000FF4F2491FC01E255FF4F3491FC01E656C9
:1004B000FF4FE491EE23C9F0222339F0233001F1FC
:1004C000A8F4213019F1223029F1F0E0EE0FFF1FDE
:1004D000E057FF4FA591B4918FB7F894EC9161115B
:1004E00026C030953E233C938FBF08952730A9F056
:1004F0002830C9F0243049F7809180008F7D03C0F7
:10050000809180008F7780938000DFCF84B58F77D4
:1005100084BDDBCF84B58F7DFBCF8091B0008F771A
:100520008093B000D2CF8091B0008F7DF9CF3E2B69
:10053000DACFCF93DF9390E0FC01E255FF4F249197
:1005400086569F4FFC0184918823D1F090E0880F5C
:10055000991FFC01E859FF4FA591B491FC01E057A8
:10056000FF4FC591D49161110EC09FB7F8948C9143
:10057000E22FE0958E238C932881E223E8839FBFAE
:10058000DF91CF9108958FB7F894EC91E22BEC9323
:100590008FBFF6CF3FB7F8948091730190917401AB
:1005A000A0917501B091760126B5A89B05C02F3F9B
:1005B00019F00196A11DB11D3FBFBA2FA92F982F89
:1005C0008827BC01CD01620F711D811D911D42E084
:1005D000660F771F881F991F4A95D1F708958F924C
:1005E0009F92AF92BF92CF92DF92EF92FF924B0118
:1005F0005C010E94CA026B017C010E94CA026C1954
:100600007D098E099F09683E734081059105A8F315
:1006100021E0821A9108A108B10888EEC80E83E093
:10062000D81EE11CF11C81149104A104B10429F726
:10063000FF90EF90DF90CF90BF90AF909F908F9002
:100640000895EF92FF920F931F93CF93DF93EC01E6
:10065000F12CE12C10E000E080914A0290914B02D5
:10066000DC01ED91FC910084F185E02D0995892B49
:10067000B1F461E070E080E090E00E94EF02BFEF33
:10068000EB1AFB0A88EEE81683E0F80628F38FEFF2
:10069000DF91CF911F910F91FF90EF90089580917E
:1006A0004A0290914B02DC01ED91FC910284F385AA
:1006B000E02D09950930110580F5F801EE59FC4F40
:1006C0000C946A096B0373037D037D037D037D0333
:1006D0008203840387038F3E09F0BECF188289838B
:1006E0000F5F1F4FB9CF28813981282B3983288389
:1006F00021303F4EA9F38EEFCBCFFE01E00FF11F6B
:100700008083EECF8E83ECCF1F828887E9CF2F8145
:100710003885282B38872F83E3CFFE01E00FF11FA8
:1007200080832F813885C801089782179307C1F607
:1007300080E0AECF2091790130917A0128173907F6
:1007400071F49091770180917801981741F0E091D0
:100750007701F0E0E25DFE4F808190E008958FEF39
:100760009FEF08950895EF92FF920F931F93CF93F9
:10077000DF93DC015C96ED90FC905D97E114F10451
:1007800079F481E090E013969C938E93129790E019
:1007900080E0DF91CF911F910F91FF90EF9008952E
:1007A0005196ED91FC91529750968C915097982FBD
:1007B00090950FB75E962C915E97122F127021FDC7
:1007C0006095F8942081112319F1282B2083E701EB
:1007D0002197F1F728E0462F50E0308160FF1AC0E2
:1007E000382B3083E7012197F1F7BA0175956795AA
:1007F000215089F7112381F08081892380830FBFE5
:100800005C968D919C910197F1F781E090E0C1CFCA
:100810002923DCCF3923E5CF9081892BEFCF20919D
:10082000790130917A012817390771F480917801A4
:100830002091770190E0805C9F4F821B910960E4DA
:1008400070E00E943409089590E080E008952091BE
:10085000790130917A0128173907B9F4909177011D
:1008600080917801981789F0E0917701F0E0E25DDE
:10087000FE4F80812091770130E02F5F3F4F2F7333
:1008800033272093770190E008958FEF9FEF08952D
:1008900090E080E008958F929F92AF92BF920F9365
:1008A0001F93CF93DF93CDB7DEB7A1970FB6F89420
:1008B000DEBF0FBECDBF19A2423008F44AE08E0160
:1008C0000F5D1F4F842E912CB12CA12CA5019401FA
:1008D0000E944809E62FB901CA01EA3044F5E05DFB
:1008E000D801EE938D01232B242B252B79F790E053
:1008F00080E0109769F0FD0101900020E9F7319741
:10090000AF014A1B5B0BBD018BE791E00E944001E8
:10091000A1960FB6F894DEBF0FBECDBFDF91CF9189
:100920001F910F91BF90AF909F908F900895E95CB9
:10093000D7CF42E050E06AE271E08BE791E00C949F
:100940004001CF93DF93CDB7DEB7C954D1090FB6BD
:10095000F894DEBF0FBECDBF81E09FEE9A838983FE
:1009600091E09F8321E030E0398728878FEF8B83E8
:100970008C838D838E839A87CE0101960E948D0091
:10098000CE0101960E94210381110EC08F81873014
:1009900059F48A85C75BDF4F0FB6F894DEBF0FBEF0
:1009A000CDBFDF91CF91089581E0F4CF1F920F92D8
:1009B0000FB60F9211242F933F934F935F936F9332
:1009C0007F938F939F93AF93BF93EF93FF938BE7A7
:1009D00091E00E94BE01FF91EF91BF91AF919F9175
:1009E0008F917F916F915F914F913F912F910F90D8
:1009F0000FBE0F901F9018951F920F920FB60F9277
:100A000011242F938F939F93EF93FF93E0918B018A
:100A1000F0918C018081E0919101F091920182FD31
:100A20001BC09081809194018F5F8F7320919501FD
:100A3000821741F0E0919401F0E0E558FE4F958F68
:100A400080939401FF91EF919F918F912F910F903F
:100A50000FBE0F901F9018958081F4CF1F920F92B8
:100A60000FB60F9211242F933F938F939F93AF93C1
:100A7000BF9380916F0190917001A0917101B0912D
:100A8000720130916E0123E0230F2D3758F5019646
:100A9000A11DB11D20936E0180936F019093700191
:100AA000A0937101B09372018091730190917401D0
:100AB000A0917501B09176010196A11DB11D8093A1
:100AC000730190937401A0937501B0937601BF9167
:100AD000AF919F918F913F912F910F900FBE0F90EB
:100AE0001F90189526E8230F0296A11DB11DD2CFA5
:100AF0001F920F920FB60F9211242F933F934F9393
:100B00005F936F937F938F939F93AF93BF93EF9375
:100B1000FF93E0917901F0917A01309749F0A68531
:100B2000B7858585968D91FF14C09C918923A1F48A
:100B3000FF91EF91BF91AF919F918F917F916F91B5
:100B40005F914F913F912F910F900FBE0F901F908B
:100B500018959C91892361F7A389B4899C91858913
:100B6000809589238C93868997890197F1F7608D09
:100B7000718DA685B785558538E020E0CB010197BA
:100B8000F1F7822F90E095958795282F4C9145237A
:100B900009F02068315091F7868D81FD2095809174
:100BA000780190E001968F7399273091770138177B
:100BB00099F0A0917801B0E0A25DBE4F2C93809394
:100BC0007801828D938D0197F1F7A389B4898C9177
:100BD0009589892B8C93ACCF868D8160868FF1CFE0
:100BE00010927E0110927D0188EE93E0A0E0B0E0CB
:100BF00080937F0190938001A0938101B093820143
:100C00002AE031E030937C0120937B0125EC30E039
:100C1000309388012093870124EC30E030938A01DF
:100C20002093890120EC30E030938C0120938B01DC
:100C300021EC30E030938E0120938D0122EC30E0E6
:100C40003093900120938F0126EC30E03093920195
:100C500020939101109294011092950110929601A7
:100C600010929701109253021092520280935402F4
:100C700090935502A0935602B09357028CE191E0F5
:100C80009093510280935002109267021092660274
:100C9000109269021092680210926B0210926A021E
:100CA00010926D0210926C0260916E026E7F6D7FE9
:100CB00060936E026695617081E0682783E00E9410
:100CC0004D0261E083E00E949902E1EBF0E0E491E3
:100CD000E0936002EDE9F0E0E491F0E0EE0FFF1F39
:100CE000E057FF4F85919491909362028093610247
:100CF00060E082E00E94990280916E0281FD04C052
:100D000061E082E00E944D0280E592E022E02093C3
:100D10005C02E0EBF0E0E491E0935D02ECE9F0E0EE
:100D2000E491F0E0EE0FFF1FEA57FF4F2591349159
:100D300030935F0220935E0210921F0210921E02F7
:100D4000109221021092200220E430E0309323021E
:100D50002093220210922502109224024FEF5FEF9F
:100D6000BA014093260250932702609328027093A1
:100D7000290230932B0220932A0220E031EE309397
:100D80002D0220932C0210922E0210922F0210920C
:100D9000300210923102409332025093330260933A
:100DA00034027093350210924F0210924E029093CB
:100DB0004D0280934C0290934B0280934A02089517
:100DC000CF93DF93CDB7DEB7CF54D1090FB6F894E8
:100DD000DEBF0FBECDBF789484B5826084BD84B57C
:100DE000816084BD85B5826085BD85B5816085BD26
:100DF00080916E00816080936E00109281008091DE
:100E00008100826080938100809181008160809365
:100E10008100809180008160809380008091B1008A
:100E200084608093B1008091B00081608093B000B5
:100E300080917A00846080937A0080917A00826049
:100E400080937A0080917A00816080937A0080910B
:100E50007A00806880937A001092C10061E086E099
:100E60000E949902E0918B01F0918C0102E00083D5
:100E7000E0918701F09188011082E0918901F09161
:100E80008A018FEC808310929301E0918F01F091A1
:100E9000900116E01083E0918D01F0918E01808128
:100EA00080618083E0918D01F0918E018081886066
:100EB0008083E0918D01F0918E0180818068808334
:100EC000E0918D01F0918E0180818F7D808364E6B9
:100ED00070E080E090E00E94EF0268EE73E080E056
:100EE00090E00E94EF02E0914E02F0914F023097A5
:100EF00031F1A089B1890C93A089B1891C92A48594
:100F0000B5851C92A685B78580E18C93108EA48947
:100F1000B5891C93A289B3898C9180618C93A28935
:100F2000B3898C9188608C93A289B3898C918068F5
:100F30008C930288F389E02D80818F7D8083E091FE
:100F40004C02F0914D02309709F477C0138E128E47
:100F5000118E108E178A168A82E490E0958F848F06
:100F60008485863108F03DC02FE030E0378B268B3A
:100F700020E430E0318F208F27E230E0338F228F62
:100F800090916800883008F42AC121E08E3008F47E
:100F900020E081E001C0880F2A95EAF7892B809331
:100FA000680094852DE630E0983050F02BE630E074
:100FB0009E3030F02CE630E0963110F030E020E04A
:100FC000348B238B292F30E0983008F00AC181E060
:100FD00001C0880F9A95EAF7858B848D958D0197CE
:100FE000F1F7828D938D892B41F1409179015091D8
:100FF0007A01E417F50709F14115510569F0DA01A5
:1010000053962D913C91D9019C91DA0155968C9182
:1010100080958923D9018C93868D8E7F868F10923F
:10102000780110927701F0937A01E0937901A38916
:10103000B4898C919589892B8C9381E09FEE9A835A
:10104000898381E08F8381E090E0998788878FEFA3
:101050008B838C838D838E838DE18A87CE0101966D
:101060000E948D00CE0101960E94210381110CC0C7
:101070008F81873049F48B859C859827892798270D
:1010800090931D0280931C021FEF20E0C22E20E0EF
:10109000D22EEE24E3943FEEF32E01E042E0A42EA4
:1010A000B12C56E0852E912C92E0592E0E94A1047D
:1010B000811183C0FA82E9820F83B986A8861B83D7
:1010C0001C831D831E835A860B87CE0101960E94C6
:1010D0008D00CE0101960E94210381116EC08F8187
:1010E000873009F06AC08A85811167C086E0E0E038
:1010F000F1E0DE01A65BBF4F01900D928A95E1F70A
:10110000FA82E9820F83998688861B831C831D835C
:101110001E8386E0FE01E65BFF4FDE011A9601901A
:101120000D928A95E1F7CE0101960E948D00CE01C5
:1011300001960E942103811119C08F818730B1F47B
:101140006B857C85762767277627709319026093D5
:1011500018028D859E8598278927982790931B02D2
:1011600080931A028A85882309F448C04AE060E027
:1011700070E0CB010E944B040E94990483E0682E2A
:10118000712C61E086E00E944D026CE271E080E02B
:1011900090E00E94EF0260E086E00E944D0264E66B
:1011A00070E080E090E00E94EF02B1E06B1A7108FD
:1011B00041F70E94A1048823E1F362E370E080E03C
:1011C00090E00E94EF02C114D10409F46FCF0E9495
:1011D000AA01882309F468CF0E94000065CF84E04B
:1011E000DDCE9E3040F42850310981E001C0880FE7
:1011F0002A95EAF7F1CE2E503109F7CF90E080E042
:101200004AE00E944B040E94990461E086E00E943B
:101210004D0268EC70E080E090E00E94EF0260E038
:1012200086E00E944D020E94A1048823E1F3C5CF0D
:101230008CE191E09093510280935002809179016A
:1012400090917A018055924071F4E0916302F0919F
:101250006402908180916502809589238083109239
:101260007A0110927901089597FB072E16F40094E5
:1012700007D077FD09D00E94700907FC05D03EF425
:10128000909581959F4F0895709561957F4F089532
:10129000A1E21A2EAA1BBB1BFD010DC0AA1FBB1F7A
:1012A000EE1FFF1FA217B307E407F50720F0A21BEC
:1012B000B30BE40BF50B661F771F881F991F1A9459
:1012C00069F760957095809590959B01AC01BD0183
:1012D000CF010895EE0FFF1F0590F491E02D0994C2
:1012E000AA1BBB1B51E107C0AA1FBB1FA617B7074C
:1012F00010F0A61BB70B881F991F5A95A9F7809568
:101300009095BC01CD01089510E0C2E6D0E004C084
:10131000FE010E946A092196C336D107C9F7F894E5
:02132000FFCFFD
:101322001B01000000A300000000E00140016D016C
:101332002D029E017C01900100000000B3034001D8
:0E1342004804B2030F0427049A030D0A0000AA
:00000001FF
